:100000000C9476010C94B7110C948C110C94611122
:100010000C9436110C940B110C94E0100C94B51048
:100020000C948A100C94A7010C94A7010C94A701BE
:100030000C94A7010C94A7010C94A7010C94A701A0
:100040000C94A7010C946C120C94A7010C94A701BA
:100050000C94A7010C94A7010C94A7010C944010D8
:100060000C94A7010C940A100C94E00F0C94A701B7
:100070000C94A7010C94A7010C94A7010C94A70160
:100080000C943E120C94A7010C94A7010C94A701A8
:100090000C94A7010C94A7010C94A7010C94A70140
:1000A0000C94A7010C94A7010C9410120C94A701B6
:1000B0000C94A7010C94A7010C94A7010C94E211D5
:1000C0000C94A7010C94A7010C94A7010C94A70110
:1000D0000C94A7010C94A7010C94A7010C94A70100
:1000E0000C94A70105A84CCDB2D44EB93836A9025C
:1000F0000C50B9918688083CA6AAAA2ABE00000026
:10010000803F0C9423020C9460030C9474080C94AC
:100110002F030C94A4080C9492080C9451060C9490
:1001200088080C947E080C946A030C9401090C94C2
:1001300044030C940F020C949A120C94C0080C9473
:1001400065030C94ED080C9440030C9452030C943A
:10015000DD0A0C945C030C944A030C944E030C943B
:1001600000020C9433030C94F7080C94B6080C941A
:1001700050060C942B030C9466030C949C080C946E
:10018000CA080C9469020C9497030C94D3010C9444
:10019000B6020C94E3080C9479080C9437030C9481
:1001A0003A030C9425030C9412060C9458030C94F7
:1001B000D9080C9408040C9431020C944F060C944A
:1001C0000B090C94AC080C94C80300002100240017
:1001D00027002A002D003000330001010000040137
:1001E00007010A0100002200250028002B002E0034
:1001F0003100340002010000050108010B0100007C
:1002000020002300260029002C002F0032000001CE
:100210000000030106010901050505050705080899
:100220000808020202020A0A080804040404010180
:100230000101010101010303030303030303040795
:1002400007070C0C0C0C0C0C0C0C0202020206062C
:100250000606060606060B0B0B0B0B0B0B0B01021F
:1002600010202008081020401020408002010201C8
:100270000804020101020408102040808040201080
:1002800008040201800402018040201008040201D9
:100290000804020101020408102040800102040841
:1002A0001020408000000A0B02090C0D0E08070305
:1002B0000401000000000000000000000000000039
:1002C000000000000000000000000000000000002E
:1002D00012111000000000000000000000000000EB
:1002E000000000000000000000009A1211241FBE50
:1002F000CFEFD1E2DEBFCDBF00E00CBF14E0A0E045
:10030000B2E0E8E8FFE300E00BBF02C007900D9207
:10031000A838B107D9F726E0A8E8B4E001C01D92DB
:10032000A239B207E1F711E0C6E7D1E000E006C06C
:1003300021970109802FFE010E94A41DC537D10716
:1003400080E00807A9F70E948B130C94C21F0C943D
:10035000000096E0899FD0011124AF5FB94F9096BD
:100360007C936E935F9791E091969C939197E09127
:100370006E06F0916F0690916D06992339F03097D3
:1003800051F0811108C080911D061994309719F021
:100390005C968C91FACF0895DC01ED91FC9101906F
:1003A000F081E02D1994AF92BF92CF92DF92EF923D
:1003B000FF920F931F93CF93DF936C017B018B010F
:1003C000040F151FEB015E01AE18BF08C017D1075F
:1003D00059F06991D601ED91FC910190F081E02DE9
:1003E000C6011995892B79F7C501DF91CF911F912E
:1003F0000F91FF90EF90DF90CF90BF90AF90089556
:10040000FC01538D448D252F30E0842F90E0821B1A
:10041000930B541710F0CF96089501970895FC019F
:10042000918D828D981761F0A28DAE0FBF2FB11DF7
:100430005D968C91928D9F5F9F73928F90E008954F
:100440008FEF9FEF0895FC01918D828D981731F009
:10045000828DE80FF11D858D90E008958FEF9FEF5D
:100460000895FC01918D228D892F90E0805C9F4F33
:10047000821B91098F739927089583ED94E00E9460
:10048000310221E0892B09F420E0822F0895FC013C
:10049000A48DA80FB92FB11DA35ABF4F2C91848DE5
:1004A00090E001968F739927848FA689B7892C9342
:1004B000A089B1898C91837080648C93938D848D95
:1004C000981306C00288F389E02D80818F7D808398
:1004D0000895EF92FF920F931F93CF93DF93EC0158
:1004E00081E0888F9B8D8C8D98131AC0E889F989DB
:1004F000808185FF15C09FB7F894EE89FF896083DE
:10050000E889F98980818370806480839FBF81E05E
:1005100090E0DF91CF911F910F91FF90EF900895A0
:10052000F62E0B8D10E00F5F1F4F0F731127E02E7B
:100530008C8D8E110CC00FB607FCFACFE889F989B3
:10054000808185FFF5CFCE010E944702F1CFEB8D70
:10055000EC0FFD2FF11DE35AFF4FF0829FB7F89487
:100560000B8FEA89FB8980818062CFCFCF93DF93A5
:10057000EC01888D8823B9F0AA89BB89E889F989BB
:100580008C9185FD03C0808186FD0DC00FB607FCF0
:10059000F7CF8C9185FFF2CF808185FFEDCFCE0123
:1005A0000E944702E9CFDF91CF91089580E090E06B
:1005B000892B29F00E943D0281110E94000080E0F9
:1005C00090E0892B49F080E090E0892B29F00E948F
:1005D000000081110E94000080E090E0892B49F02A
:1005E00080E090E0892B29F00E94000081110E9498
:1005F000000080E090E0892B49F080E090E0892BBA
:1006000029F00E94000081110C940000089581508F
:10061000823108F05AC0E82FF0E08827ED5EFC4FE9
:100620008F4F0C94A41D3303370325032B032F0393
:1006300065033A03400344034A034E03520358033D
:100640005C036503600366036A03809180008F7713
:10065000809380000895809180008F7DF9CF8091F4
:100660008000877FF5CF84B58F7784BD089584B5EA
:100670008F7DFBCF8091B0008F778093B00008957D
:100680008091B0008F7DF9CF809190008F7780931B
:1006900090000895809190008F7DF9CF8091900017
:1006A000877FF5CF8091A0008F778093A000089579
:1006B0008091A0008F7DF9CF8091A000877FF5CF3A
:1006C000809120018F7780932001089580912001EF
:1006D0008F7DF9CF80912001877FF5CFCF93DF9376
:1006E000282F30E0F901EC55FD4F8491F901E25AD1
:1006F000FD4FD491F901E85EFD4FC491CC23A1F0E8
:1007000081110E940703EC2FF0E0EE0FFF1FE25073
:10071000FE4FA591B491EC91ED2381E090E009F4B6
:1007200080E0DF91CF91089580E090E0FACF862FAE
:100730000C946E031F93CF93DF93282F30E0F901C1
:10074000EC55FD4F8491F901E25AFD4FD491F90126
:10075000E85EFD4FC491CC23A9F0162F81110E94B1
:100760000703EC2FF0E0EE0FFF1FEC51FE4FA591B9
:10077000B4918FB7F894EC91111108C0D095DE2395
:10078000DC938FBFDF91CF911F910895DE2BF8CFBF
:10079000862F642F0C949A03CF93DF9390E0FC0193
:1007A000E25AFD4F2491885E9D4FFC01849188237D
:1007B000C9F090E0880F991FFC01E653FE4FA59108
:1007C000B491FC01EC51FE4FC591D49161110DC063
:1007D0009FB7F8948C91209582238C93888128234D
:1007E00028839FBFDF91CF910895623051F49FB766
:1007F000F8943C91822F809583238C93E8812E2B53
:10080000EFCF8FB7F894EC912E2B2C938FBFEACFBC
:10081000862F642F0C94CC033FB7F8948091B004DA
:100820009091B104A091B204B091B30426B5A89BF5
:1008300005C02F3F19F00196A11DB11D3FBFBA2F72
:10084000A92F982F8827BC01CD01620F711D811D32
:10085000911D42E0660F771F881F991F4A95D1F7B7
:1008600008958F929F92AF92BF92CF92DF92EF92B4
:10087000FF924B015C010E940C046B017C010E9401
:100880000C046C197D098E099F09683E734081052F
:100890009105A8F321E0821A9108A108B10888EE19
:1008A000C80E83E0D81EE11CF11C81149104A10440
:1008B000B10429F7FF90EF90DF90CF90BF90AF90F9
:1008C0009F908F9008952FB7F8946091AC04709129
:1008D000AD048091AE049091AF042FBF08950F93A3
:1008E0001F93CF93DF93C82FD62F86E0C89FF001C8
:1008F0001124EF5FF94F11A2878D90A181309105EE
:10090000F1F058F082309105F1F1039709F440C0FD
:10091000DF91CF911F910F9108956623C9F361E094
:1009200070E08C2F0E94A9010E9463046093590615
:1009300070935A0680935B0690935C06E9CF0E9401
:1009400063040091590610915A0620915B0630917C
:100950005C06AB01BC01401B510B620B730B809119
:100960006B0690916C06B0E0A0E084179507A6078F
:10097000B70748F462E070E08C2FDF91CF911F91B0
:100980000F910C94A90163E070E0D111C1CFF4CFB5
:1009900070E060E0F1CF6F927F928F929F92AF9262
:1009A000BF92CF92DF92EF92FF920F931F93CF935C
:1009B000DF9381E080936D060E94630400915D06E1
:1009C00010915E0620915F0630916006AB01BC017C
:1009D000401B510B620B730B8091690690916A0664
:1009E000B0E0A0E084179507A607B70708F014C188
:1009F000C0E080916706C81760F4E0916306F0914B
:100A00006406EC0FF11D62E080810E94CC03CF5F91
:100A1000F0CF712C812C912C540183948091680625
:100A2000781608F05FC0072D10E0E0916506F091A0
:100A30006606E00FF11F61E080810E94CC03E09127
:100A40006506F0916606E00FF11F60E080810E946C
:100A50009A03D501C401072C04C0880F991FAA1F4F
:100A6000BB1F0A94D2F76C017C01E094F094612CD6
:100A7000809167066816F8F4C62DD0E0E091630611
:100A8000F0916406EC0FFD1F80810E946E03249696
:100A9000CC0FDD1FCF5FD94F892B41F4888199811D
:100AA0008C299D29998388836394E2CF88819981D9
:100AB0008E219F21F7CFE0916506F0916606E00F49
:100AC000F11F61E080810E949A03809165069091F8
:100AD0006606080F191F60E0F80180810E94CC03B0
:100AE00073949CCFC1E0D6E0FE018FEF9FEF278D7E
:100AF00030A1232B21F4148E968F858F11A2369668
:100B000026E0ED33F20799F7F12C96E0D92E80918B
:100B10006706F81608F050C0E12C0F2D10E0000F0A
:100B2000111F075F194F20916806E21608F042C0B6
:100B3000F801608171810E2C02C0769567950A9448
:100B4000E2F7F29E900111242E0D311DE1E0F6E056
:100B500080E0458D568D2417350709F461C08F5FFD
:100B600036968A30B1F760FF23C0E1E0F6E090E00E
:100B700080E0448D411117C0E0916106F09162065A
:100B8000E20FF31F4081D89EF001D99EF00D112491
:100B9000EF5FF94F448F368F258F10A2178E61E0DB
:100BA0000E946F0405C0019636968A30910509F7B8
:100BB000E394B9CFF394ABCF10E089A18111182F42
:100BC0002696F6E0CD33DF07C1F70E9463046093F9
:100BD0005D0670935E0680935F0690936006112316
:100BE000D9F0809122068823B9F080912006909157
:100BF0002106019789F480911D06DF91CF911F9105
:100C00000F91FF90EF90DF90CF90BF90AF909F90AB
:100C10008F907F906F90089510926D0680E0EDCFD9
:100C20006170BECFCF92DF92EF92FF920E94630479
:100C30006B017C018091880490918904A0918A04C1
:100C4000B0918B04A7019601281B390B4A0B5B0B53
:100C5000DA01C9010697A105B105B0F084E00E9450
:100C60006E030197B1F48091A5049091A6040196BA
:100C70009093A6048093A504C0928804D09289041E
:100C8000E0928A04F0928B04FF90EF90DF90CF9077
:100C900008958091A5049091A6040197E9CF089545
:100CA000089590E080E008958F929F92AF92BF9256
:100CB000FF920F931F93CF93DF93FC01F0808FE29D
:100CC0008F1508F44AC0828108E512E0081B11095B
:100CD00087FD1395000F111F000F111F8181C8E8B8
:100CE000D0E0C81BD10987FDD395CC0FDD1FCC0FF9
:100CF000DD1F4E010D2E000CAA08BB089801012E25
:100D0000000C440B550B281939094A095B09DB0112
:100D10000E94B01B24EB30E040E050E00E94861BB4
:100D2000820E931EA41EB51E8C169D062CF0E801A3
:100D3000801691060CF4E4012297CC0FDD1F2FB72B
:100D4000F8948F2D90E0FC01EE0FFF1FE80FF91FC4
:100D5000E059FA4FD283C1832FBFDF91CF911F910A
:100D60000F91FF90BF90AF909F908F9008951F9329
:100D7000CF93DF93EC01162F8881803308F04EC0AB
:100D800061E0812F0E94CC038881282F30E0F90197
:100D9000EE0FFF1FE20FF31FE059FA4F1F73608140
:100DA000607C612B608319821A822CE0622F0E9482
:100DB000981D829FB001112430E020E0AB01420F6A
:100DC000531FFA01EE0FFF1FE40FF51FE059FA4F12
:100DD000908196FD16C02F5F3F4F2C30310571F783
:100DE000813009F51092800082E08093810010929A
:100DF000850010928400B19A80916F008260809388
:100E00006F00E8818E2F90E0FC01EE0FFF1FE80FCE
:100E1000F91FE059FA4F8081806480838881DF91D7
:100E2000CF911F910895823061F4109290008093C9
:100E30009100109295001092940088BB80937100ED
:100E4000E0CF833069F41092A00082E08093A1008B
:100E50001092A5001092A40089BB80937200D1CF9C
:100E60008111CFCF1092200182E080932101109256
:100E70002501109224018ABB80937300C2CFAF92E8
:100E8000BF92CF92DF92EF92FF920F931F93CF9377
:100E9000DF936B017A01EC01C955DB4F28813CE0FF
:100EA000389F8001399F100D1124A0900006B12CAD
:100EB00027FF1FC0FB011182108288818F5F88830A
:100EC00088819801280F311D87FD3A95F6012A1572
:100ED0003B051CF488818C30C4F18081918104969B
:100EE00080349C4908F473C0F60180819181049696
:100EF00070C088819801280F311D87FD3A952A1509
:100F00003B05DCF68881A801480F511D87FD5A95E5
:100F1000FA01EE0FFF1FE40FF51FE059FA4F808131
:100F200086FFCBCF8881F801E80FF11D87FDFA9588
:100F3000CF01EE0FFF1FE80FF91FE059FA4F808134
:100F400060E08F730E949A03B8CF808191812881DD
:100F5000A801420F511D27FD5A959A01FA01EE0F83
:100F6000FF1FE20FF31FE059FA4F21813281820FF8
:100F7000931FF7019183808388819801280F311D89
:100F800087FD3A95F901EE0FFF1FE20FF31FE059BD
:100F9000FA4F808186FF22C08881080F111D87FDCE
:100FA0001A95F801EE0FFF1FE00FF11FE059FA4FFD
:100FB000808161E08F73DF91CF911F910F91FF903E
:100FC000EF90DF90CF90BF90AF900C949A0380E4A5
:100FD0009CE9F701918380838FEF8883DF91CF9124
:100FE0001F910F91FF90EF90DF90CF90BF90AF9047
:100FF00008950F931F93CF93DF930E94CB04D0E00B
:10100000C0E003E210E081110DC0CF319EE4D907AA
:1010100049F0C8010197F1F70E94CB048823E1F35E
:101020002196F1CFDF91CF911F910F910895CF922B
:10103000DF92EF92FF92CF93DF936091000287E0FF
:101040000E949A0360918C0486E00E949A0360914A
:101050008F047091900480919104909192040E9469
:10106000C81C6B01EB0161E085E00E94CC03209776
:10107000B1F460E085E00E949A0360E087E30E949B
:101080009A0360E089E30E949A0361E088E3DF91BC
:10109000CF91FF90EF90DF90CF900C949A03CF3FC9
:1010A000D10511F461E0E6CFE9EAF2E0E491E15024
:1010B000E23108F0B0C0F0E08827EE59F74F8F4FCB
:1010C0000C94A41D740879087E08880892080B09FE
:1010D0009C08A408AC08B608C008CA08D908E308E8
:1010E0000B09ED08F708010984B5806884BDC7BC09
:1010F000C4CF84B5806284BDC8BCBFCF809180005E
:10110000806880938000D0928900C0928800B5CF1B
:1011100080918000806280938000D0928B00C0928A
:101120008A00ABCF80918000886080938000D0924D
:101130008D00C0928C00A1CF8091B0008068809318
:10114000B000C092B30099CF8091B00080628093CC
:10115000B000C092B40091CF8091900080688093DD
:101160009000D0929900C092980087CF8091900013
:10117000806280939000D0929B00C0929A007DCFB5
:1011800080919000886080939000D0929D00C092E2
:101190009C0073CF8091A00080688093A000809114
:1011A000A0008F7B8093A000D092A900C092A800DD
:1011B00064CF8091A00080628093A000D092AB00A9
:1011C000C092AA005ACF8091A00088608093A000AE
:1011D000D092AD00C092AC0050CF809120018068C9
:1011E00080932001D0922901C092280146CF80919E
:1011F0002001806280932001D0922B01C0922A01AD
:101200003CCF80912001886080932001D0922D01F5
:10121000C0922C0132CFC038D1050CF043CF29CF7A
:1012200081E090910002911180E08093000281E0C2
:1012300090918C04911180E080938C0461E088E3AC
:101240000C949A03CF93DF93C8E0D0E0609115022D
:1012500070911602072E000C880B990B0E94691AD8
:101260002091BF043091C0044091C1045091C20448
:101270000E94621A18166CF08091B8049091B9041B
:10128000079739F40E941009D093B904C093B804A9
:10129000DDCFDF91CF91089561E08091000281114F
:1012A00060E087E00E949A0360918C0486E00E94CF
:1012B0009A0383E290E00197F1F7089560E088E3F4
:1012C0000E949A0360E087E30E949A0361E089E349
:1012D0000E949A0370E060E083E796E00E94540663
:1012E0006BEE70E080E090E00E9431046AE570E00F
:1012F00083E796E00E9454066BEE70E080E090E099
:101300000C943104CF93DF93EC0160E08E810E9456
:101310009A0361E08E810E949A0360E08E810E94B0
:101320009A038BE891E00197F1F7DF91CF9108954F
:10133000CF92DF92EF92FF920F931F93CF93DF93A1
:101340006C017C0187E0E80EF11CD0E0C0E0062FC4
:1013500010E0B8010C2E02C0759567950A94E2F76B
:101360006170F70181917F010E949A032196C43038
:10137000D10579F7C601DF91CF911F910F91FF90B1
:10138000EF90DF90CF900C948209CF92DF92EF9292
:10139000FF920F931F93CF93DF93EC01F62E642FF0
:1013A0008C810E949A038D818F3F19F060E00E942A
:1013B0009A030F2D10E08F8584FF25C06E0187E012
:1013C000C80ED11CF12CE12CB8010E2C02C0759571
:1013D00067950A94E2F76170F60181916F010E94AE
:1013E0009A03FFEFEF1AFF0A88E0E816F10461F7AD
:1013F000CE01DF91CF911F910F91FF90EF90DF9081
:10140000CF900C948209B80184E0759567958A9510
:10141000E1F7CE010E9498096F2DCE01DF91CF91A7
:101420001F910F91FF90EF90DF90CF900C9498094F
:1014300040E0682F86E796E00C94C50981E00E94A1
:10144000180A8BE39FE10197F1F70895CF93DF939B
:10145000613029F09091850698609093850660939D
:10146000890610928A0690E490938B0680938C06EE
:10147000805C80938D0661E080917A060E94CC03A7
:1014800080917B068F3F19F061E00E94CC0361E000
:1014900080917C060E94CC03C6E7D6E09E012657C9
:1014A00036408091850684FD0BC084E090E0219653
:1014B0002817390744F461E08E810E94CC03EECFF7
:1014C00088E090E0F4CF8BE39DE00197F1F760E0D6
:1014D00080917A060E949A0360E080917C060E94C7
:1014E0009A0380917B068F3F19F060E00E949A0377
:1014F0008091850684FD34C063E086E796E00E9413
:101500009809CBE4D6E4CE010197F1F763E086E7D2
:1015100096E00E9498092197F1F763E086E796E04C
:101520000E94980983E592E00197F1F762E086E76F
:1015300096E00E9498098091850680620E94180AB0
:1015400084E0809386068CE00E94180A0E941E0A9E
:1015500082E08093870686E0DF91CF910C94180A91
:1015600080620E94180A8BE496E40197F1F780915B
:10157000850680620E94180A83E592E00197F1F7E0
:101580008091850680620E94180AD5CF82E00E9471
:10159000180A8BE39FE10197F1F70895909189066E
:1015A000691710F06FEF690FE62FF0E0EA58F94F76
:1015B0009489890F80680C94180A41E00E94C5093B
:1015C00081E090E00895FB0101900020E9F7319758
:1015D000AF01461B570BDC01ED91FC910280F381BA
:1015E000E02D19948F929F92AF92BF92EF92FF924B
:1015F0000F931F93CF93DF93CDB7DEB7A1970FB6AD
:10160000F894DEBF0FBECDBF7C01FA01CB0119A259
:10161000223008F42AE08E010F5D1F4F822E912C9C
:10162000B12CA12CBF01A50194010E94B81BF901A6
:10163000CA016A300CF5605DD8016E938D01232BD1
:10164000242B252B79F790E080E0109721F0BD0145
:10165000C7010E94E30AA1960FB6F894DEBF0FBE41
:10166000CDBFDF91CF911F910F91FF90EF90BF9071
:10167000AF909F908F900895695CDECFCF92DF92FC
:10168000EF92FF920F931F93CF93DF936B01770F2E
:10169000EE08FF08F7FE1BC0EC016DE20E94CC01D2
:1016A0008C0144275527BA014C195D096E097F0941
:1016B0002AE0CE010E94F20A800F911FDF91CF91A4
:1016C0001F910F91FF90EF90DF90CF9008952AE047
:1016D000B701A601DF91CF911F910F91FF90EF907D
:1016E000DF90CF900C94F20A0C94E30A80911702D9
:1016F000882359F10E94C60A6EE572E086E796E0FB
:101700000E94740B61E080E00E94CE0A63E772E001
:1017100086E796E00E94740B62E080E00E94CE0AA9
:1017200068E872E086E796E00E94740B63E080E070
:101730000E94CE0A6DE972E086E796E00E94740B83
:101740001092170281E08093D2040895CF93DF9323
:101750006091C9047091CA04072E000C880B990B84
:101760000E94691A2091BF043091C0044091C104C5
:101770005091C2040E94FE1C87FD04C18091B804F0
:101780009091B904089709F0FDC00E944C0960E0EF
:1017900088E30E949A0361E087E30E949A0370E065
:1017A00060E080E796E00E9454066EEB70E080E017
:1017B00090E00E9431046AE570E080E796E00E94C4
:1017C00054066EEB70E080E090E00E9431040E94CD
:1017D0001009C0918D04D0918E042196D0938E046F
:1017E000C0938D048091CB049091CC042091B404DB
:1017F0003091B504820F931F9093160280931502C7
:101800001092B7041092B6041092B9041092B80462
:1018100063E080E10E94CE0ABE0186E796E00E9466
:101820003E0B62EB72E083ED94E00E94740B6091DA
:101830008D0470918E0483ED94E00E943E0B6CEB5E
:1018400072E083ED94E00E94E30A40918D04509190
:101850008E048091C9049091CA044230510594F0DD
:101860002091B4043091B504280F391F309316022B
:10187000209315021092B7041092B6041092B90486
:101880001092B8042091CB043091CC04820F931FA6
:101890009093CA048093C9048091CF049091D0049E
:1018A0004817590709F054CF8091020281110BC0EB
:1018B00081E0809302020E94C60A6FEB72E086E725
:1018C00096E00E94740B8091010281110BC081E0AF
:1018D000809301020E94C60A64ED72E086E796E0FA
:1018E0000E94740B60E088E30E949A0360E087E343
:1018F0000E949A0360E089E30E949A036CEB72E015
:1019000083ED94E00E94E30A69EE72E083ED94E0D7
:101910000E94740B60918D0470918E0483ED94E0AD
:101920000E943E0B6CEB72E083ED94E00E94E30AB0
:101930000E944C091092B7041092B6041092B90498
:101940001092B8040E94F9078A32E1F38332D1F38E
:101950008134C1F71092D0041092CF041092D104B8
:1019600081E08093D204809317020E94760B88E175
:101970009DE00FB6F894A895809360000FBE9093F9
:101980006000FFCFDF91CF9108958F929F92AF9229
:10199000BF92CF92DF92EF92FF928091C70488238B
:1019A00051F0109202020E94C60A64E073E086E7DA
:1019B00096E00E94740B8091C804882351F0109225
:1019C00001020E94C60A69E173E086E796E00E9480
:1019D000740B61E083E00E94CE0AC090BF04D090F7
:1019E000C004E090C104F090C204A7019601C701B1
:1019F000B6010E940B1D6EE273E081111AC0460110
:101A00005701E894B7F82FEF3FEF4FE75FE7C501C5
:101A1000B4010E940B1D81113EC02FEF3FEF4FE735
:101A20005FE7C501B4010E94621A1816A4F562E3CB
:101A300073E086E796E00E94E30A61E08DE00E9491
:101A4000CE0A6AE373E086E796E00E94740B62E0D8
:101A500080E00E94CE0A6DE373E086E796E00E9484
:101A6000740B6091CF047091D00486E796E00E94D9
:101A70003E0B63E080E00E94CE0A65EF72E086E7ED
:101A800096E0FF90EF90DF90CF90BF90AF909F9047
:101A90008F900C94740B2FEF3FEF4FE75FE4C7017B
:101AA000B6010E94FE1C18161CF466E373E0C1CF59
:101AB0002FEF3FEF4FE75FECC701B6010E94621ABC
:101AC00087FDF3CF20E030E0A901C701B6010E94F5
:101AD000621A87FF09C06DE286E796E00E94CC019A
:101AE000F7FAF094F7F8F0942AE037ED43EA5BE375
:101AF000C701B6010E94EA1B4B015C010E94CF1C8A
:101B00006B017C010E94671A9B01AC01C501B40105
:101B10000E94E91B4B015C012AE0B701A60186E7A0
:101B200096E00E94F20A6EE286E796E00E94CC01FF
:101B300020E030E040E251E4C501B4010E94C81A3F
:101B40004B015C010E94CF1C6B01F12CE12C2AE0BF
:101B5000B701A60186E796E00E94F20AC701B60126
:101B60000E94671A9B01AC01C501B4010E94E91BE8
:101B700020E030E040E251E40E94C81A0E94CF1CED
:101B8000AB0170E060E02AE086E796E00E94F20A8E
:101B900054CFFC0180819181009711F00C94481E74
:101BA0000895FC0180819181009711F00C94261A10
:101BB00060E070E0CB0108950F931F93CF93DF9304
:101BC000EC0188819981009759F02A813B81261781
:101BD000370730F081E0DF91CF911F910F91089589
:101BE0008B016F5F7F4F0E94D11E009759F0998340
:101BF00088831B830A832C813D81232B59F7FC01A9
:101C00001082E8CF80E0E7CFCF93DF93EC01198219
:101C100018821B821A821D821C8270E060E00E9482
:101C2000DC0D2881398181110FC02115310519F092
:101C3000C9010E94481E198218821D821C821B82C3
:101C40001A82DF91CF9108951D821C826EEB72E0A3
:101C5000C901DF91CF910C94BB1FCF93DF93EC01AF
:101C600070E060E00E94DC0D2881398181110FC095
:101C70002115310519F0C9010E94481E19821882E8
:101C80001D821C821B821A82DF91CF9108951D82D2
:101C90001C826EEB72E0C901DF91CF910C94BB1FE7
:101CA000EF92FF920F931F93CF93DF931F921F9298
:101CB000CDB7DEB78C0169831A82FC01E480F58020
:101CC000FFEFEF1AFF0AB7010E94DC0D882381F0B5
:101CD000F8012081318184819581BE016F5F7F4F42
:101CE000820F931F0E94BB1FF801F582E48281E0FE
:101CF0000F900F90DF91CF911F910F91FF90EF9078
:101D000008954F925F926F927F928F929F92AF92BF
:101D1000BF92CF92DF92EF92FF92CF93DF9300D0EA
:101D20001F92CDB7DEB7FFB6F8946091A50470910D
:101D3000A604072E000C880B990B0E94691A609369
:101D4000C3047093C4048093C5049093C604FFBE7B
:101D50000E940C046B017C018091A1049091A2046B
:101D6000A091A304B091A404A7019601281B390BEC
:101D70004A0B5B0BCA01B9010E94691A20E034E2E8
:101D800044E759E40E94561C4B015C014090C30497
:101D90005090C4046090C5047090C60460919F0484
:101DA0007091A004072E000C880B990B0E94691AF1
:101DB0009B01AC01C301B2010E94E91BA501940182
:101DC0000E94561C69837A838B839C83C301B20172
:101DD0000E94C81C7093A00460939F04C092A10449
:101DE000D092A204E092A304F092A40420E030E098
:101DF00046E154E469817A818B819C810E94561C62
:101E000020E030E040E752E40E94C81A69837A83F8
:101E10008B839C832EEB3FE94AE55FE360919B0453
:101E200070919C0480919D0490919E040E94C81A18
:101E30002B013C012BE238E145E95DE369817A81C0
:101E40008B819C810E94C81A9B01AC01C301B20125
:101E50000E94EA1B2B013C012BE238E145E95DE3DE
:101E600060919704709198048091990490919A04DC
:101E70000E94C81A9B01AC01C301B2010E94EA1B77
:101E80002B013C0140929B0450929C0460929D0463
:101E900070929E0489819A81AB81BC818093970462
:101EA00090939804A0939904B0939A04C701B60143
:101EB0000E94691A20E034E244E759E40E94561C6B
:101EC0000E94031D20E030E0A9010E94FE1C1816AC
:101ED0000CF464C060E070E0CB01A30192010E94A9
:101EE000E91B2B013C01AC019B01C501B4010E941F
:101EF000C81A209193043091940440919504509114
:101F000096040E94EA1B6B017C01C0929304D0925C
:101F10009404E0929504F092960420E030E040EAC8
:101F200050E4C301B2010E94C81A4B015C0120E0D9
:101F300030E040E251E4C701B6010E94C81A9B019B
:101F4000AC01C501B4010E94EA1B6B017C01E8945D
:101F5000F7F820E030E04FE753E4C701B6010E94F4
:101F6000FE1C181604F1C0928F04D0929004E092E7
:101F70009104F09292040F900F900F900F90DF91C8
:101F8000CF91FF90EF90DF90CF90BF90AF909F9058
:101F90008F907F906F905F904F90089560E070E019
:101FA00088EC92E49ACF80E090E0AFE7B3E48093CE
:101FB0008F0490939004A0939104B0939204DBCF8C
:101FC0001F920F920FB60F9211240BB60F922F9300
:101FD0003F934F935F936F937F938F939F93AF93B1
:101FE000BF93EF93FF9383ED94E00E944702FF912C
:101FF000EF91BF91AF919F918F917F916F915F9181
:102000004F913F912F910F900BBE0F900FBE0F90ED
:102010001F9018951F920F920FB60F9211240BB6B6
:102020000F922F938F939F93EF93FF93E091E3048D
:10203000F091E4048081E091E904F091EA0482FDEA
:102040001DC090818091EC048F5F8F732091ED040F
:10205000821741F0E091EC04F0E0ED52FB4F958FD8
:102060008093EC04FF91EF919F918F912F910F90AE
:102070000BBE0F900FBE0F901F9018958081F2CF6E
:102080001F920F920FB60F9211242F933F938F93AD
:102090009F93AF93BF938091AC049091AD04A091B6
:1020A000AE04B091AF043091AB0423E0230F2D3781
:1020B00058F50196A11DB11D2093AB048093AC048B
:1020C0009093AD04A093AE04B093AF048091B0049C
:1020D0009091B104A091B204B091B3040196A11DF6
:1020E000B11D8093B0049093B104A093B204B09357
:1020F000B304BF91AF919F918F913F912F910F901A
:102100000FBE0F901F90189526E8230F0296A11D71
:10211000B11DD2CF1F920F920FB60F9211240BB6A2
:102120000F922F933F934F935F936F937F938F9370
:102130009F93AF93BF93EF93FF93E0911102F091C0
:1021400012021995FF91EF91BF91AF919F918F91DD
:102150007F916F915F914F913F912F910F900BBEA7
:102160000F900FBE0F901F9018951F920F920FB6F1
:102170000F9211240BB60F922F933F934F935F93BF
:102180006F937F938F939F93AF93BF93EF93FF933F
:10219000E0910F02F09110021995FF91EF91BF911C
:1021A000AF919F918F917F916F915F914F913F91EF
:1021B0002F910F900BBE0F900FBE0F901F90189590
:1021C0001F920F920FB60F9211240BB60F922F93FE
:1021D0003F934F935F936F937F938F939F93AF93AF
:1021E000BF93EF93FF93E0910502F09106021995DA
:1021F000FF91EF91BF91AF919F918F917F916F91DF
:102200005F914F913F912F910F900BBE0F900FBE9A
:102210000F901F9018951F920F920FB60F921124D6
:102220000BB60F922F933F934F935F936F937F93D0
:102230008F939F93AF93BF93EF93FF93E09103022C
:10224000F09104021995FF91EF91BF91AF919F9189
:102250008F917F916F915F914F913F912F910F904F
:102260000BBE0F900FBE0F901F9018951F920F92EC
:102270000FB60F9211240BB60F922F933F934F93EB
:102280005F936F937F938F939F93AF93BF93EF93DE
:10229000FF93E0910D02F0910E021995FF91EF91DD
:1022A000BF91AF919F918F917F916F915F914F916E
:1022B0003F912F910F900BBE0F900FBE0F901F906C
:1022C00018951F920F920FB60F9211240BB60F9212
:1022D0002F933F934F935F936F937F938F939F932E
:1022E000AF93BF93EF93FF93E0910B02F0910C0239
:1022F0001995FF91EF91BF91AF919F918F917F9130
:102300006F915F914F913F912F910F900BBE0F9066
:102310000FBE0F901F9018951F920F920FB60F923D
:1023200011240BB60F922F933F934F935F936F93AC
:102330007F938F939F93AF93BF93EF93FF93E0911E
:102340000902F0910A021995FF91EF91BF91AF91A7
:102350009F918F917F916F915F914F913F912F91BD
:102360000F900BBE0F900FBE0F901F9018951F92ED
:102370000F920FB60F9211240BB60F922F933F932B
:102380004F935F936F937F938F939F93AF93BF937D
:10239000EF93FF93E0910702F09108021995FF91E6
:1023A000EF91BF91AF919F918F917F916F915F91CD
:1023B0004F913F912F910F900BBE0F900FBE0F903A
:1023C0001F9018951F920F920FB60F9211240BB603
:1023D0000F922F933F934F935F936F937F938F93BE
:1023E0009F93AF93BF93EF93FF9348E251E064E272
:1023F00071E090E080E00E943F07FF91EF91BF9174
:10240000AF919F918F917F916F915F914F913F918C
:102410002F910F900BBE0F900FBE0F901F9018952D
:102420001F920F920FB60F9211240BB60F922F939B
:102430003F934F935F936F937F938F939F93AF934C
:10244000BF93EF93FF9348EA50E064EA70E083E0C3
:1024500090E00E943F07FF91EF91BF91AF919F9154
:102460008F917F916F915F914F913F912F910F903D
:102470000BBE0F900FBE0F901F9018951F920F92DA
:102480000FB60F9211240BB60F922F933F934F93D9
:102490005F936F937F938F939F93AF93BF93EF93CC
:1024A000FF9348E950E064E970E082E090E00E9428
:1024B0003F07FF91EF91BF91AF919F918F917F91D6
:1024C0006F915F914F913F912F910F900BBE0F90A5
:1024D0000FBE0F901F9018951F920F920FB60F927C
:1024E00011240BB60F922F933F934F935F936F93EB
:1024F0007F938F939F93AF93BF93EF93FF9348E89E
:1025000050E064E870E081E090E00E943F07FF91B6
:10251000EF91BF91AF919F918F917F916F915F915B
:102520004F913F912F910F900BBE0F900FBE0F90C8
:102530001F901895CF931092D6041092D50488EE70
:1025400093E0A0E0B0E08093D7049093D804A093E8
:10255000D904B093DA048AE392E09093D404809390
:10256000D30485EC90E09093E0048093DF0484EC46
:1025700090E09093E2048093E10480EC90E09093EB
:10258000E4048093E30481EC90E09093E60480936C
:10259000E50482EC90E09093E8048093E70486ECF5
:1025A00090E09093EA048093E9041092EC04109276
:1025B000ED041092EE041092EF041092790610923E
:1025C000780686E592E090937706809376068DE014
:1025D00080937A06CFEFC0937B068CE080937C06D5
:1025E00088E080937D0686E380937E068AE0809370
:1025F0007F068BE0809380061092810610928206FF
:1026000010928306109284061092850661E080E1A4
:102610000E94260A80910006803308F075C091E080
:10262000980F909300068093730690E0FC01EE0FE4
:10263000FF1FE80FF91FE059FA4F88EB9BE09283E8
:10264000818380910006803308F061C091E0980F8B
:10265000909300068093700690E0FC01EE0FFF1F40
:10266000E80FF91FE059FA4F88EB9BE092838183D2
:1026700010920306109207061092060610920806A2
:102680008CE492E09093020680930106EDE1F6E07F
:102690001082148213821582369686E0E935F80797
:1026A000B9F78CE192E0909364068093630688E129
:1026B00092E0909366068093650684E080936706B7
:1026C0008093680680E292E09093620680936106B0
:1026D0008AE090E090936A068093690684EF91E027
:1026E00090936C0680936B0610926F0610926E06A4
:1026F00010925D0610925E0610925F0610926006C0
:1027000010926D06CF910895C09373069ACF8FEF04
:1027100080937006ADCFCF93DF93CDB7DEB76E97C2
:102720000FB6F894DEBF0FBECDBF789484B582603B
:1027300084BD84B5816084BD85B5826085BD85B565
:10274000816085BD80916E00816080936E001092E3
:10275000810080918100826080938100809181005E
:1027600081608093810080918000816080938000EF
:102770008091B10084608093B1008091B00081604D
:102780008093B0008091910082608093910080914D
:10279000910081608093910080919000816080938E
:1027A00090008091A10082608093A1008091A1009F
:1027B00081608093A1008091A00081608093A0003F
:1027C00080912101826080932101809121018160AB
:1027D000809321018091200181608093200180916C
:1027E0007A00846080937A0080917A00826080937E
:1027F0007A0080917A00816080937A0080917A00DB
:10280000806880937A001092C1000FB6F894A89562
:1028100080916000886180936000109260000FBE1C
:10282000E091E304F091E40482E08083E091DF042E
:10283000F091E0041082E091E104F091E2048FEC69
:1028400080831092EB04E091E704F091E80486E0C5
:102850008083E091E504F091E604808180618083CB
:10286000E091E504F091E604808188608083E09146
:10287000E504F091E604808180688083E091E504BE
:10288000F091E60480818F7D808364E084E10E9482
:10289000260A60E082E00E94CC0360E084E00E94AF
:1028A000CC0361E087E00E94CC0361E086E00E94F7
:1028B000CC0361E085E00E94CC0361E087E30E94E5
:1028C000CC0361E088E30E94CC0361E089E30E94CD
:1028D000CC0363E070E083E796E00E94B70669E00E
:1028E00070E080E796E00E94B70682E196E0909360
:1028F00004028093030280916A00836080936A00DF
:10290000EC9A80911502909116029093B5048093F1
:10291000B4040E94760BCE0149960E94040ECE01AB
:1029200043960E94040ECE010D960E94040ECE0125
:1029300007960E94040ECE0101960E94040E0E948A
:10294000F907182F8FEB810F8430E8F11A32D9F193
:102950001332C9F11033B9F18DEC810F873098F142
:10296000112341F00E941E0A68E470E080E090E0CC
:102970000E9431048091D204882349F1113309F077
:1029800056C060E081E00E94CE0A6FE473E086E703
:1029900096E00E94740B61E080E00E94CE0A62E63D
:1029A00073E086E796E00E94740B63E080E00E948B
:1029B000CE0A63E773E086E796E00E94740B1092FC
:1029C000D2040E94810E8091D204811184C061E002
:1029D0008EE00E94CE0AF12CE12C0E94F907182FFC
:1029E0008FEB810FE114F10409F0AEC08430A8F33D
:1029F000133299F31A3229F0612F86E796E00E948C
:102A0000CC01612FCE0149960E94500EEE24E39432
:102A1000F12C1A3211F7CE0149960E942D0E81E059
:102A20008093D204809317020E94760B31C0123338
:102A300009F051C00E94C60A68E873E086E796E094
:102A40000E94740B61E080E00E94CE0A6DE973E0A1
:102A500086E796E00E94740B62E080E00E94CE0A56
:102A600067EA73E086E796E00E94740B63E080E01B
:102A70000E94CE0A63E773E086E796E00E94740B3B
:102A8000109214029ECF83E0E816F1040CF4A5CF57
:102A90008D8D9E8D892BF9F00E94C60A6EEA73E037
:102AA00086E796E00E94740B61E080E00E94CE0A07
:102AB00062EC73E086E796E00E94740B63E080E0CE
:102AC0000E94CE0A63E773E086E796E00E94740BEB
:102AD00081E08093D1048091D104882309F403C15B
:102AE00061E08AE00E94CE0AF12CE12C0E94F907F5
:102AF000182F8FEB810FE114F10409F032C18430FB
:102B0000A8F3133299F31A3229F0612F86E796E081
:102B10000E94CC01612FCE0143960E94500EEE24FC
:102B2000E394F12C1A3211F7CE0143960E942D0E38
:102B3000CE0149960E942D0E1092D10481E080931F
:102B400017020E94760B21C0843008F49CCFEA94CF
:102B5000EF2899F4133209F49BCF1A3229F0612F30
:102B600086E796E00E94CC01612FCE0149960E9433
:102B7000500E02E0E02EF12C4CCF1332D1F788CF6B
:102B800083E0E816F1040CF4B1CF8F89988D892B7E
:102B900009F4A9C08D8D9E8D892B09F4A4C0CE01A6
:102BA00043960E94D10D7093D0046093CF04CE0160
:102BB00049960E94D10D7093CE046093CD04660FA8
:102BC000771F8091150290911602680F791F660F8A
:102BD000771F7093CC046093CB047093CA04609306
:102BE000C9040E94C60A66ED73E086E796E00E947B
:102BF000740B61E080E00E94CE0A6BEE73E086E722
:102C000096E00E94740B61E089E00E94CE0A609118
:102C1000CD047091CE0486E796E00E943E0B62E000
:102C200080E00E94CE0A60E074E086E796E00E94B1
:102C3000740B62E089E00E94CE0A6091CF0470912B
:102C4000D00486E796E00E943E0B63E080E00E949D
:102C5000CE0A65E174E086E796E00E94740BDD24FD
:102C6000D3948091CF049091D00418161906DCF506
:102C70008091CD049091CE0418161906A4F5D09237
:102C8000C8041092C7040E94F907182F8FEB810F18
:102C9000843038F380ED810F8A3018F3112309F363
:102CA0000E941E0A68E470E080E090E00E94310417
:102CB0001A3209F072C01092D0041092CF04109210
:102CC000CE041092CD04CE0143960E942D0ECE016B
:102CD00049960E942D0E1092D104D092D204D09227
:102CE00017020E94760B8091140281110BC161E0E2
:102CF00089E00E94CE0A6AE373E086E796E00E94CC
:102D0000740B61E087E00E94CE0AF12CE12C0E9456
:102D1000F907182F8FEB810FE114F10409F037C187
:102D20008430A8F3133299F31A3229F0612F86E721
:102D300096E00E94CC01612FCE010D960E94500EAC
:102D4000EE24E394F12C1A3211F7CE010D960E9475
:102D50002D0E81E080931402809317020E94760B5F
:102D6000B6C0843008F40CCFEA94EF2899F41332FB
:102D700009F40BCF1A3229F0612F86E796E00E9402
:102D8000CC01612FCE0143960E94500EA2E0EA2EA4
:102D9000F12CC8CE1332D1F7F8CE133209F061CF3F
:102DA0008091CF049091D004181619060CF059CFD9
:102DB0000E94810E0E9417082EEB3FE942E05FE37C
:102DC0006091C3047091C4048091C5049091C604BD
:102DD0000E94C81A4B015C0120E030E0A9010E946A
:102DE000FE1C20E030E040E05FE387FD50C0C501FD
:102DF000B4010E94EA1B0E94C81C0E94691A6093D9
:102E0000BF047093C0048093C1049093C2040E94D5
:102E1000C50CE0901502F0901602B7010F2C000CC3
:102E2000880B990B0E94691A2091BF043091C0044D
:102E30004091C1045091C2040E94621A1816ECF12C
:102E40000091B8041091B9048091B6049091B70430
:102E50000817190791F50E944C090E945E09C801E4
:102E600001969093B9048093B8049093B70480932B
:102E7000B6048530910584F48091CD049091CE0400
:102E8000E80EF91EF0921602E0921502C2CFC501BB
:102E9000B4010E94E91BAFCF8530910521F48BE08E
:102EA000E80EF11CEFCF069709F0B3CF0E5F1F4F6E
:102EB0001093B9040093B804ACCF0E9422090E9479
:102EC000A60B6ECF83E0E816F1040CF420CF8989BD
:102ED0009A89892BB9F062E080E00E94CE0A6AE20A
:102EE00074E086E796E00E94740B63E080E00E9445
:102EF000CE0A63E773E086E796E00E94740B81E0F8
:102F00008093BE048091BE04882309F491C062E0DE
:102F100089E00E94CE0A6AE373E086E796E00E94A9
:102F2000740B62E087E00E94CE0AF12CE12C0E9433
:102F3000F907182F8FEB810FE114F10409F0B6C0E7
:102F40008430A8F3133299F31A3229F0612F86E7FF
:102F500096E00E94CC01612FCE0107960E94500E90
:102F6000EE24E394F12C1A3211F7CE010D960E9453
:102F70002D0ECE0107960E942D0E1092BE0481E008
:102F800080931402809317020E94760B21C0843034
:102F900008F498CFEA94EF2899F4133209F497CF04
:102FA0001A3229F0612F86E796E00E94CC01612F4A
:102FB000CE010D960E94500E52E0E52EF12CC3CEAC
:102FC0001332D1F784CF83E0E816F1040CF4AFCFCD
:102FD00089899A89892B61F18B859C85892B41F19F
:102FE0000E94C60A64E374E086E796E00E94740BD0
:102FF00061E080E00E94CE0A62EC73E086E796E032
:103000000E94740B62E080E00E94CE0A6DE972E0DB
:1030100086E796E00E94740B63E080E00E94CE0A8F
:1030200063E773E086E796E00E94740B1092130248
:1030300080911302811137C161E08BE00E94CE0ABA
:10304000F12CE12C0E94F907182F8FEB810FE1146E
:10305000F10409F03FC18430A8F3133299F31A3216
:1030600029F0612F86E796E00E94CC01612FCE0106
:1030700001960E94500EEE24E394F12C1A3211F7BF
:10308000CE0101960E942D0ECE010D960E942D0EAE
:10309000CE0107960E942D0E81E08093130280934B
:1030A000D204809317020E94760B21C0843008F46A
:1030B0008ACFEA94EF2899F4133209F489CF1A32AF
:1030C00029F0612F86E796E00E94CC01612FCE01A6
:1030D00007960E94500E32E0E32EF12C44CF1332BB
:1030E000D1F776CF83E0E816F1040CF4ABCF8989F1
:1030F0009A89892B09F4D7C08B859C85892B09F483
:10310000D2C08D819E81892B09F4CDC0CE010D9650
:103110000E94D10D6B017093BD046093BC04CE017D
:1031200007960E94D10D4B017093BB046093BA04C3
:10313000CE0101960E94D10D7093D0046093CF040C
:1031400060911502709116026C0D7D1D680D791D40
:10315000660F771F7093CC046093CB047093CA04FE
:103160006093C9040E94C60A69E474E086E796E0A9
:103170000E94740B61E080E00E94CE0A6EE574E06C
:1031800086E796E00E94740B61E084E00E94CE0A1C
:103190006091BC047091BD0486E796E00E943E0BEE
:1031A00061E080E10E94CE0A6091BA047091BB0494
:1031B00086E796E00E943E0B62E080E00E94CE0A25
:1031C00063E774E086E796E00E94740B62E08AE0B1
:1031D0000E94CE0A6091CF047091D00486E796E0F9
:1031E0000E943E0B63E080E00E94CE0A65E174E03D
:1031F00086E796E00E94740BDD24D3948091CF047F
:103200009091D004181619060CF04DC08091BA04A4
:103210009091BB04181619060CF045C08091BC04AF
:103220009091BD0418161906F4F5D092C7041092B7
:10323000C8040E94F907182F8FEB810F8430F0F239
:1032400080ED810F8A30D0F21123C1F20E941E0A54
:1032500068E470E080E090E00E9431041A3209F0E6
:1032600055C01092BD041092BC041092BB04109281
:10327000BA041092D0041092CF04CE010D960E9491
:103280002D0ECE0107960E942D0ECE0101960E94B2
:103290002D0ED09213021092BE04D0921402D0923E
:1032A00017020E94760BCE0101960E94C90DCE0135
:1032B00007960E94C90DCE010D960E94C90DCE0140
:1032C00043960E94C90DCE0149960E94C90D0E94E5
:1032D000D6021FCB843008F405CFEA94EF2899F486
:1032E000133209F404CF1A3229F0612F86E796E0F1
:1032F0000E94CC01612FCE0101960E94500E92E0F7
:10330000E92EF12CBBCE1332D1F7F1CE133209F0F6
:1033100075CF8091CF049091D004181619060CF047
:103320006DCF0E94810E0E9417082EEB3FE942E00C
:103330005FE36091C3047091C4048091C5049091CF
:10334000C6040E94C81A4B015C0120E030E0A901CC
:103350000E94FE1C20E030E040E05FE387FD53C0A8
:10336000C501B4010E94EA1B0E94C81C0E94691A90
:103370006093BF047093C0048093C1049093C2040F
:103380000E94C50C0091150210911602B801012E81
:10339000000C880B990B0E94691A2091BF04309190
:1033A000C0044091C1045091C2040E94621A1816D0
:1033B0000CF447C0E090B804F090B9048091B604D2
:1033C0009091B704E816F906E1F50E944C090E94B5
:1033D0005E09C70101969093B9048093B804909355
:1033E000B7048093B60497012D7F2115310581F430
:1033F0008091BC049091BD04080F191F1093160210
:1034000000931502BFCFC501B4010E94E91BACCFE8
:103410002130310529F48091BA049091BB04ECCF9E
:10342000863091051CF4055F1F4FE8CF069709F021
:10343000A9CF82E0E80EF11CF092B904E092B80442
:10344000A1CF0E9422090E94A60B63CF1F93FC010B
:1034500099278827BC01E89411911032E9F31930BB
:1034600010F01E30C8F31B3251F01D3249F468943D
:1034700006C00E944D1A610F711D811D911D119191
:1034800010531A30B0F33EF4909580957095619585
:103490007F4F8F4F9F4F1F910895592F482F372FE0
:1034A000262F660F771F881F991F660F771F881FAB
:1034B000991F620F731F841F951F660F771F881F48
:1034C000991F08950E94A41A08F481E00895E894D1
:1034D00009C097FB3EF490958095709561957F4F5C
:1034E0008F4F9F4F9923A9F0F92F96E9BB2793950A
:1034F000F695879577956795B795F111F8CFFAF41A
:10350000BB0F11F460FF1BC06F5F7F4F8F4F9F4F4A
:1035100016C0882311F096E911C0772321F09EE8A8
:10352000872F762F05C0662371F096E8862F70E00E
:1035300060E02AF09A95660F771F881FDAF7880FE8
:103540009695879597F90895990F0008550FAA0B3E
:10355000E0E8FEEF16161706E807F907C0F01216A6
:103560001306E407F50798F0621B730B840B950BA9
:1035700039F40A2661F0232B242B252B21F40895FE
:103580000A2609F4A140A6958FEF811D811D08959B
:103590000E94DB1A0C944C1B0E943E1B38F00E94C8
:1035A000451B20F0952311F00C94351B0C943B1B0C
:1035B00011240C94801B0E945D1B70F3959FC1F336
:1035C000950F50E0551F629FF001729FBB27F00DD1
:1035D000B11D639FAA27F00DB11DAA1F649F662726
:1035E000B00DA11D661F829F2227B00DA11D621F75
:1035F000739FB00DA11D621F839FA00D611D221F2F
:10360000749F3327A00D611D231F849F600D211D12
:10361000822F762F6A2F11249F5750409AF0F1F095
:1036200088234AF0EE0FFF1FBB1F661F771F881FFE
:1036300091505040A9F79E3F510580F00C94351BE6
:103640000C94801B5F3FE4F3983ED4F38695779506
:103650006795B795F795E7959F5FC1F7FE2B880FA4
:10366000911D9695879597F9089597F99F6780E83A
:1036700070E060E008959FEF80EC089500240A94C4
:103680001616170618060906089500240A9412163D
:103690001306140605060895092E0394000C11F470
:1036A000882352F0BB0F40F4BF2B11F460FF04C01D
:1036B0006F5F7F4F8F4F9F4F089557FD9058440F76
:1036C000551F59F05F3F71F04795880F97FB991F81
:1036D00061F09F3F79F0879508951216130614063E
:1036E000551FF2CF4695F1DF08C0161617061806CB
:1036F000991FF1CF86957105610508940895E894A6
:10370000BB2766277727CB0197F90895052E97FBEE
:103710001EF400940E949D1B57FD07D00E94B81B09
:1037200007FC03D04EF40C949D1B509540953095AA
:1037300021953F4F4F4F5F4F08959095809570951D
:1037400061957F4F8F4F9F4F08950E94DA1BA59F71
:10375000900DB49F900DA49F800D911D112408958C
:10376000B7FF0C94A51B0E94A51B821B930B089509
:10377000A1E21A2EAA1BBB1BFD010DC0AA1FBB1F75
:10378000EE1FFF1FA217B307E407F50720F0A21BE7
:10379000B30BE40BF50B661F771F881F991F1A9454
:1037A00069F760957095809590959B01AC01BD017E
:1037B000CF010895A29FB001B39FC001A39F700DD8
:1037C000811D1124911DB29F700D811D1124911D29
:1037D00008955058BB27AA270E94011C0C944C1B2B
:1037E0000E943E1B38F00E94451B20F039F49F3F99
:1037F00019F426F40C943B1B0EF4E095E7FB0C94B3
:10380000351BE92F0E945D1B58F3BA176207730737
:103810008407950720F079F4A6F50C947F1B0EF42D
:10382000E0950B2EBA2FA02D0B01B90190010C01D0
:10383000CA01A0011124FF27591B99F0593F50F4E8
:10384000503E68F11A16F040A22F232F342F442740
:10385000585FF3CF469537952795A795F040539538
:10386000C9F77EF41F16BA0B620B730B840BBAF008
:103870009150A1F0FF0FBB1F661F771F881FC2F773
:103880000EC0BA0F621F731F841F48F48795779587
:103890006795B795F7959E3F08F0B0CF9395880F41
:1038A00008F09927EE0F9795879508950E946A1C56
:1038B0000C944C1B0E94451B58F00E943E1B40F08C
:1038C00029F45F3F29F00C94351B51110C94801B97
:1038D0000C943B1B0E945D1B68F39923B1F35523A5
:1038E00091F3951B550BBB27AA2762177307840713
:1038F00038F09F5F5F4F220F331F441FAA1FA9F3A9
:1039000035D00E2E3AF0E0E832D091505040E69596
:10391000001CCAF72BD0FE2F29D0660F771F881FF7
:10392000BB1F261737074807AB07B0E809F0BB0BEA
:10393000802DBF01FF2793585F4F3AF09E3F5105FE
:1039400078F00C94351B0C94801B5F3FE4F3983E99
:10395000D4F3869577956795B795F7959F5FC9F7E7
:10396000880F911D9695879597F90895E1E0660F68
:10397000771F881FBB1F621773078407BA0720F0E1
:10398000621B730B840BBA0BEE1F88F7E09508954A
:103990000E94CF1C6894B1110C94801B08950E9462
:1039A000651B88F09F5798F0B92F9927B751B0F051
:1039B000E1F0660F771F881F991F1AF0BA95C9F7B3
:1039C00014C0B13091F00E947F1BB1E008950C94B7
:1039D0007F1B672F782F8827B85F39F0B93FCCF36A
:1039E000869577956795B395D9F73EF49095809530
:1039F000709561957F4F8F4F9F4F08950E94A41A35
:103A000008F48FEF08959F930E94121D0F9007FCFA
:103A1000EE5F0C943B1D0E94A41A880B990B08952D
:103A20000C943B1B0E94651BD8F3E894E0E0BB2795
:103A30009F57F0F02AED3FE049EC06C0EE0FBB0FB8
:103A4000661F771F881F28F0B23A62077307840742
:103A500028F0B25A620B730B840BE3959A9572F7B8
:103A6000803830F49A95BB0F661F771F881FD2F7F6
:103A700090480C94511DEF93E0FF07C0A2EA2AED95
:103A80003FE049EC5FEB0E94011C0E944C1B0F9031
:103A9000039401FC9058E4EEF0E00C945D1D9F3F10
:103AA00031F0915020F4879577956795B795880FF9
:103AB000911D9695879597F908959F938F937F937E
:103AC0006F93FF93EF939B01AC010E94C81AEF9193
:103AD000FF910E94711D2F913F914F915F910C9426
:103AE000C81ADF93CF931F930F93FF92EF92DF9249
:103AF0007B018C01689406C0DA2EEF010E94DB1A6C
:103B0000FE01E894A5912591359145915591A6F333
:103B1000EF010E94011CFE019701A801DA9469F7E8
:103B2000DF90EF90FF900F911F91CF91DF9108955B
:103B3000991B79E004C0991F961708F0961B881FFF
:103B40007A95C9F780950895EE0FFF1F881F8BBFE8
:103B50000790F691E02D19940F931F93CF93DF9365
:103B60008230910510F482E090E0E0919006F091AF
:103B7000910630E020E0B0E0A0E0309799F4211504
:103B8000310509F44AC0281B390B24303105D8F51A
:103B90008A819B816115710589F1FB019383828381
:103BA000FE0111C0408151810281138148175907DC
:103BB000E0F04817590799F4109761F012960C93AA
:103BC000129713961C933296CF01DF91CF911F91DC
:103BD0000F9108950093900610939106F4CF21154C
:103BE000310551F04217530738F0A901DB019A0162
:103BF000BD01DF01F801C1CFEF01F9CF909391062C
:103C000080939006CDCFFE01E20FF31F8193919335
:103C10002250310939832883D7CF20918E063091E5
:103C20008F06232B41F420913202309133023093DE
:103C30008F0620938E06209130023091310221159B
:103C4000310541F42DB73EB7409134025091350211
:103C5000241B350BE0918E06F0918F06E217F307D7
:103C6000A0F42E1B3F0B2817390778F0AC014E5FEC
:103C70005F4F2417350748F04E0F5F1F50938F0694
:103C800040938E06819391939FCFF0E0E0E09CCF2C
:103C9000CF93DF930097E9F0FC01329713821282F1
:103CA000A0919006B0919106ED0130E020E01097D0
:103CB000A1F420813181820F931F20918E063091D3
:103CC0008F062817390709F061C0F0938F06E0933B
:103CD0008E06DF91CF910895EA01CE17DF07E8F550
:103CE0004A815B819E0141155105B1F7E901FB83D2
:103CF000EA8349915991C40FD51FEC17FD0761F470
:103D0000808191810296840F951FE90199838883B0
:103D1000828193819B838A83F0E0E0E012968D910B
:103D20009C9113970097B9F52D913C911197CD0176
:103D30000296820F931F20918E0630918F062817CE
:103D4000390739F6309751F5109291061092900686
:103D5000B0938F06A0938E06BCCFD383C2834081DD
:103D60005181840F951FC817D90761F44E5F5F4FCB
:103D700088819981480F591F518340838A819B8193
:103D8000938382832115310509F0B0CFF09391061A
:103D9000E09390069ECFFD01DC01C0CF138212821A
:103DA000D7CF4F925F926F927F928F929F92AF92F6
:103DB000BF92CF92DF92EF92FF920F931F93CF9318
:103DC000DF938C01009799F4CB01DF91CF911F9184
:103DD0000F91FF90EF90DF90CF90BF90AF909F90AA
:103DE0008F907F906F905F904F900C94AC1DFC0172
:103DF000E60FF71F9C0122503109E217F30708F480
:103E0000AEC0D901CD91DC911197C617D70720F12B
:103E1000C530D10578F0CE0104978617970750F08A
:103E2000C61BD70B2297C193D1936D937C93CF017F
:103E30000E94481EC801DF91CF911F910F91FF9002
:103E4000EF90DF90CF90BF90AF909F908F907F903A
:103E50006F905F904F9008955B01AC1ABD0A4C01C2
:103E60008C0E9D1EA0919006B0919106512C412C74
:103E7000F12CE12C109731F580918E0690918F06F0
:103E80008815990509F05CC04616570608F058C019
:103E90008091300290913102009741F48DB79EB726
:103EA0004091340250913502841B950BE817F907B5
:103EB00008F055C0F0938F06E0938E06F9017183E8
:103EC0006083B8CF8D919C91119712966C90129748
:103ED00013967C901397A815B90559F56C0142E02B
:103EE000C40ED11CCA14DB0420F1AC014A195B09D1
:103EF000DA011296159780F06282738251834083B3
:103F0000D9016D937C93E114F10471F0D7011396FC
:103F1000FC93EE9312978ECF22968C0F9D1FF90182
:103F200091838083F301EFCFF0939106E0939006A5
:103F300081CF4816590608F42C017D01D3019ACF90
:103F4000CB010E94AC1D7C01009749F0AE01B80185
:103F50000E94B21FC8010E94481E87016BCF10E06B
:103F600000E068CFFB01DC0102C001900D924150DE
:103F70005040D8F70895FB01DC0101900D9200201C
:083F8000E1F70895F894FFCF6A
:103F88000101014F064F064F064F064F064F064FD9
:103F9800064F0601010600011514131211100F0E29
:103FA8003132334134353642373839432A302344A5
:103FB800000092068000000000006902D3010002A0
:103FC800B60231020F022302000000000804C803F1
:103FD800970300000000DD0AD30151065006202097
:103FE80020202020204D454E553A202020202020FA
:103FF8002020003129435541445241444F2020207C
:104008002020202020202000322952454354414EB0
:1040180047554C4F20202020202020200020202001
:104028002020202020202020202020202020202088
:1040380020004573747269626F3A20000D0A0052BD
:10404800454354414E47554C4F532041434142410B
:10405800444F5300435541445241444F5320414338
:10406800414241444F5320200043616E74696461AA
:104078006420646520466C656A65732048656368DA
:104088006F733A0048414349454E444F20524543D7
:1040980054414E47554C4F530048414349454E44BF
:1040A8004F20435541445241444F532020006E61F4
:1040B8006E00696E66006F766600434D00466C655B
:1040C8006A657320506F722048616365723A004CCC
:1040D8004F4E474954554420435541445241444F5B
:1040E8003A004D454449444120454E20434D3A202D
:1040F8002020002A2943616E63656C6172202329A0
:1041080041636570746172004D45444944415320D0
:1041180052454354414E47554C4F3A2000414E4377
:10412800484F3A202020004C4152474F3A00434123
:104138004E544944414420435541445241444F530D
:104148003A0043414E54494441443A20202020201B
:1041580020202020200020202020204355414452A8
:1041680041444F3A202020202020004D4544494416
:10417800413A2020202020434D20202020202000CC
:1041880043414E54494441443A202020554E494425
:1041980041444553002A29414E554C415220202084
:1041A8002329494E4943494152004C4152474F3A0D
:1041B8002020200043414E54494441442052454365
:1041C80054414E47554C4F53002020202020524543
:1041D8004354414E47554C4F3A2020202000414E31
:1041E800433A2020636D202F204C4152473A20202B
:1041F800636D0043414E54494441443A20202020F5
:08420800556E696461646500F4
:00000001FF
